{"contracts/childContract.sol":{"ChildBitsave":{"abi":[{"inputs":[{"internalType":"address","name":"_ownerAddress","type":"address"},{"internalType":"address","name":"_stableCoin","type":"address"}],"stateMutability":"payable","type":"constructor"},{"inputs":[],"name":"CallNotFromBitsave","type":"error"},{"inputs":[],"name":"InvalidSaving","type":"error"},{"inputs":[],"name":"InvalidTime","type":"error"},{"anonymous":false,"inputs":[{"indexed":false,"internalType":"string","name":"nameOfSaving","type":"string"},{"indexed":false,"internalType":"uint256","name":"amount","type":"uint256"},{"indexed":false,"internalType":"address","name":"token","type":"address"}],"name":"SavingCreated","type":"event"},{"inputs":[],"name":"bitsaveAddress","outputs":[{"internalType":"address","name":"","type":"address"}],"stateMutability":"view","type":"function"},{"inputs":[{"internalType":"string","name":"name","type":"string"},{"internalType":"uint256","name":"maturityTime","type":"uint256"},{"internalType":"uint256","name":"startTime","type":"uint256"},{"internalType":"uint8","name":"penaltyPercentage","type":"uint8"},{"internalType":"address","name":"tokenId","type":"address"},{"internalType":"uint256","name":"amountToRetrieve","type":"uint256"},{"internalType":"bool","name":"isSafeMode","type":"bool"}],"name":"createSaving","outputs":[{"internalType":"uint256","name":"","type":"uint256"}],"stateMutability":"payable","type":"function"},{"inputs":[],"name":"ownerAddress","outputs":[{"internalType":"address","name":"","type":"address"}],"stateMutability":"view","type":"function"},{"inputs":[{"internalType":"string","name":"","type":"string"}],"name":"savings","outputs":[{"internalType":"bool","name":"isValid","type":"bool"},{"internalType":"uint256","name":"amount","type":"uint256"},{"internalType":"address","name":"tokenId","type":"address"},{"internalType":"uint256","name":"interestAccumulated","type":"uint256"},{"internalType":"uint256","name":"startTime","type":"uint256"},{"internalType":"uint256","name":"penaltyPercentage","type":"uint256"},{"internalType":"uint256","name":"maturityTime","type":"uint256"},{"internalType":"bool","name":"isSafeMode","type":"bool"}],"stateMutability":"view","type":"function"},{"inputs":[],"name":"stableCoin","outputs":[{"internalType":"contract IERC20","name":"","type":"address"}],"stateMutability":"view","type":"function"}],"evm":{"bytecode":{"linkReferences":{},"object":"6080604052604051610cd8380380610cd883398181016040528101906100259190610151565b336000806101000a81548173ffffffffffffffffffffffffffffffffffffffff021916908373ffffffffffffffffffffffffffffffffffffffff16021790555081600260006101000a81548173ffffffffffffffffffffffffffffffffffffffff021916908373ffffffffffffffffffffffffffffffffffffffff16021790555080600160006101000a81548173ffffffffffffffffffffffffffffffffffffffff021916908373ffffffffffffffffffffffffffffffffffffffff1602179055505050610191565b600080fd5b600073ffffffffffffffffffffffffffffffffffffffff82169050919050565b600061011e826100f3565b9050919050565b61012e81610113565b811461013957600080fd5b50565b60008151905061014b81610125565b92915050565b60008060408385031215610168576101676100ee565b5b60006101768582860161013c565b92505060206101878582860161013c565b9150509250929050565b610b38806101a06000396000f3fe60806040526004361061004a5760003560e01c8063132039291461004f57806313aa6539146100935780632ae3c90f146100c35780638f84aa09146100ee578063992642e514610119575b600080fd5b34801561005b57600080fd5b506100766004803603810190610071919061068b565b610144565b60405161008a989796959493929190610749565b60405180910390f35b6100ad60048036038101906100a89190610884565b6101dc565b6040516100ba9190610942565b60405180910390f35b3480156100cf57600080fd5b506100d86104c1565b6040516100e5919061095d565b60405180910390f35b3480156100fa57600080fd5b506101036104e5565b604051610110919061095d565b60405180910390f35b34801561012557600080fd5b5061012e61050b565b60405161013b91906109d7565b60405180910390f35b6003818051602081018201805184825260208301602085012081835280955050505050506000915090508060000160009054906101000a900460ff16908060010154908060020160009054906101000a900473ffffffffffffffffffffffffffffffffffffffff16908060030154908060040154908060050154908060060154908060070160009054906101000a900460ff16905088565b60008060009054906101000a900473ffffffffffffffffffffffffffffffffffffffff1673ffffffffffffffffffffffffffffffffffffffff163373ffffffffffffffffffffffffffffffffffffffff1614610264576040517f229e1dbd00000000000000000000000000000000000000000000000000000000815260040160405180910390fd5b6003886040516102749190610a63565b908152602001604051809103902060000160009054906101000a900460ff16156102ca576040517fd63d1e4800000000000000000000000000000000000000000000000000000000815260040160405180910390fd5b85871015610304576040517f6f7eac2600000000000000000000000000000000000000000000000000000000815260040160405180910390fd5b4287101561033e576040517f6f7eac2600000000000000000000000000000000000000000000000000000000815260040160405180910390fd5b6000600390506040518061010001604052806001151581526020018581526020018673ffffffffffffffffffffffffffffffffffffffff1681526020018281526020018881526020018760ff16815260200189815260200184151581525060038a6040516103ac9190610a63565b908152602001604051809103902060008201518160000160006101000a81548160ff0219169083151502179055506020820151816001015560408201518160020160006101000a81548173ffffffffffffffffffffffffffffffffffffffff021916908373ffffffffffffffffffffffffffffffffffffffff160217905550606082015181600301556080820151816004015560a0820151816005015560c0820151816006015560e08201518160070160006101000a81548160ff0219169083151502179055509050507f4ad85a69286191006ea05981ae1848070dbf232e5e00ffdda4b857c16097f0d78985876040516104a993929190610ac4565b60405180910390a16001915050979650505050505050565b60008054906101000a900473ffffffffffffffffffffffffffffffffffffffff1681565b600260009054906101000a900473ffffffffffffffffffffffffffffffffffffffff1681565b600160009054906101000a900473ffffffffffffffffffffffffffffffffffffffff1681565b6000604051905090565b600080fd5b600080fd5b600080fd5b600080fd5b6000601f19601f8301169050919050565b7f4e487b7100000000000000000000000000000000000000000000000000000000600052604160045260246000fd5b6105988261054f565b810181811067ffffffffffffffff821117156105b7576105b6610560565b5b80604052505050565b60006105ca610531565b90506105d6828261058f565b919050565b600067ffffffffffffffff8211156105f6576105f5610560565b5b6105ff8261054f565b9050602081019050919050565b82818337600083830152505050565b600061062e610629846105db565b6105c0565b90508281526020810184848401111561064a5761064961054a565b5b61065584828561060c565b509392505050565b600082601f83011261067257610671610545565b5b813561068284826020860161061b565b91505092915050565b6000602082840312156106a1576106a061053b565b5b600082013567ffffffffffffffff8111156106bf576106be610540565b5b6106cb8482850161065d565b91505092915050565b60008115159050919050565b6106e9816106d4565b82525050565b6000819050919050565b610702816106ef565b82525050565b600073ffffffffffffffffffffffffffffffffffffffff82169050919050565b600061073382610708565b9050919050565b61074381610728565b82525050565b60006101008201905061075f600083018b6106e0565b61076c602083018a6106f9565b610779604083018961073a565b61078660608301886106f9565b61079360808301876106f9565b6107a060a08301866106f9565b6107ad60c08301856106f9565b6107ba60e08301846106e0565b9998505050505050505050565b6107d0816106ef565b81146107db57600080fd5b50565b6000813590506107ed816107c7565b92915050565b600060ff82169050919050565b610809816107f3565b811461081457600080fd5b50565b60008135905061082681610800565b92915050565b61083581610728565b811461084057600080fd5b50565b6000813590506108528161082c565b92915050565b610861816106d4565b811461086c57600080fd5b50565b60008135905061087e81610858565b92915050565b600080600080600080600060e0888a0312156108a3576108a261053b565b5b600088013567ffffffffffffffff8111156108c1576108c0610540565b5b6108cd8a828b0161065d565b97505060206108de8a828b016107de565b96505060406108ef8a828b016107de565b95505060606109008a828b01610817565b94505060806109118a828b01610843565b93505060a06109228a828b016107de565b92505060c06109338a828b0161086f565b91505092959891949750929550565b600060208201905061095760008301846106f9565b92915050565b6000602082019050610972600083018461073a565b92915050565b6000819050919050565b600061099d61099861099384610708565b610978565b610708565b9050919050565b60006109af82610982565b9050919050565b60006109c1826109a4565b9050919050565b6109d1816109b6565b82525050565b60006020820190506109ec60008301846109c8565b92915050565b600081519050919050565b600081905092915050565b60005b83811015610a26578082015181840152602081019050610a0b565b60008484015250505050565b6000610a3d826109f2565b610a4781856109fd565b9350610a57818560208601610a08565b80840191505092915050565b6000610a6f8284610a32565b915081905092915050565b600082825260208201905092915050565b6000610a96826109f2565b610aa08185610a7a565b9350610ab0818560208601610a08565b610ab98161054f565b840191505092915050565b60006060820190508181036000830152610ade8186610a8b565b9050610aed60208301856106f9565b610afa604083018461073a565b94935050505056fea26469706673582212202ed81f8c838764329d1ea5df31db4533a945ddfa8d7cc4cb7a65047f8f9e377e64736f6c63430008170033","opcodes":"PUSH1 0x80 PUSH1 0x40 MSTORE PUSH1 0x40 MLOAD PUSH2 0xCD8 CODESIZE SUB DUP1 PUSH2 0xCD8 DUP4 CODECOPY DUP2 DUP2 ADD PUSH1 0x40 MSTORE DUP2 ADD SWAP1 PUSH2 0x25 SWAP2 SWAP1 PUSH2 0x151 JUMP JUMPDEST CALLER PUSH1 0x0 DUP1 PUSH2 0x100 EXP DUP2 SLOAD DUP2 PUSH20 0xFFFFFFFFFFFFFFFFFFFFFFFFFFFFFFFFFFFFFFFF MUL NOT AND SWAP1 DUP4 PUSH20 0xFFFFFFFFFFFFFFFFFFFFFFFFFFFFFFFFFFFFFFFF AND MUL OR SWAP1 SSTORE POP DUP2 PUSH1 0x2 PUSH1 0x0 PUSH2 0x100 EXP DUP2 SLOAD DUP2 PUSH20 0xFFFFFFFFFFFFFFFFFFFFFFFFFFFFFFFFFFFFFFFF MUL NOT AND SWAP1 DUP4 PUSH20 0xFFFFFFFFFFFFFFFFFFFFFFFFFFFFFFFFFFFFFFFF AND MUL OR SWAP1 SSTORE POP DUP1 PUSH1 0x1 PUSH1 0x0 PUSH2 0x100 EXP DUP2 SLOAD DUP2 PUSH20 0xFFFFFFFFFFFFFFFFFFFFFFFFFFFFFFFFFFFFFFFF MUL NOT AND SWAP1 DUP4 PUSH20 0xFFFFFFFFFFFFFFFFFFFFFFFFFFFFFFFFFFFFFFFF AND MUL OR SWAP1 SSTORE POP POP POP PUSH2 0x191 JUMP JUMPDEST PUSH1 0x0 DUP1 REVERT JUMPDEST PUSH1 0x0 PUSH20 0xFFFFFFFFFFFFFFFFFFFFFFFFFFFFFFFFFFFFFFFF DUP3 AND SWAP1 POP SWAP2 SWAP1 POP JUMP JUMPDEST PUSH1 0x0 PUSH2 0x11E DUP3 PUSH2 0xF3 JUMP JUMPDEST SWAP1 POP SWAP2 SWAP1 POP JUMP JUMPDEST PUSH2 0x12E DUP2 PUSH2 0x113 JUMP JUMPDEST DUP2 EQ PUSH2 0x139 JUMPI PUSH1 0x0 DUP1 REVERT JUMPDEST POP JUMP JUMPDEST PUSH1 0x0 DUP2 MLOAD SWAP1 POP PUSH2 0x14B DUP2 PUSH2 0x125 JUMP JUMPDEST SWAP3 SWAP2 POP POP JUMP JUMPDEST PUSH1 0x0 DUP1 PUSH1 0x40 DUP4 DUP6 SUB SLT ISZERO PUSH2 0x168 JUMPI PUSH2 0x167 PUSH2 0xEE JUMP JUMPDEST JUMPDEST PUSH1 0x0 PUSH2 0x176 DUP6 DUP3 DUP7 ADD PUSH2 0x13C JUMP JUMPDEST SWAP3 POP POP PUSH1 0x20 PUSH2 0x187 DUP6 DUP3 DUP7 ADD PUSH2 0x13C JUMP JUMPDEST SWAP2 POP POP SWAP3 POP SWAP3 SWAP1 POP JUMP JUMPDEST PUSH2 0xB38 DUP1 PUSH2 0x1A0 PUSH1 0x0 CODECOPY PUSH1 0x0 RETURN INVALID PUSH1 0x80 PUSH1 0x40 MSTORE PUSH1 0x4 CALLDATASIZE LT PUSH2 0x4A JUMPI PUSH1 0x0 CALLDATALOAD PUSH1 0xE0 SHR DUP1 PUSH4 0x13203929 EQ PUSH2 0x4F JUMPI DUP1 PUSH4 0x13AA6539 EQ PUSH2 0x93 JUMPI DUP1 PUSH4 0x2AE3C90F EQ PUSH2 0xC3 JUMPI DUP1 PUSH4 0x8F84AA09 EQ PUSH2 0xEE JUMPI DUP1 PUSH4 0x992642E5 EQ PUSH2 0x119 JUMPI JUMPDEST PUSH1 0x0 DUP1 REVERT JUMPDEST CALLVALUE DUP1 ISZERO PUSH2 0x5B JUMPI PUSH1 0x0 DUP1 REVERT JUMPDEST POP PUSH2 0x76 PUSH1 0x4 DUP1 CALLDATASIZE SUB DUP2 ADD SWAP1 PUSH2 0x71 SWAP2 SWAP1 PUSH2 0x68B JUMP JUMPDEST PUSH2 0x144 JUMP JUMPDEST PUSH1 0x40 MLOAD PUSH2 0x8A SWAP9 SWAP8 SWAP7 SWAP6 SWAP5 SWAP4 SWAP3 SWAP2 SWAP1 PUSH2 0x749 JUMP JUMPDEST PUSH1 0x40 MLOAD DUP1 SWAP2 SUB SWAP1 RETURN JUMPDEST PUSH2 0xAD PUSH1 0x4 DUP1 CALLDATASIZE SUB DUP2 ADD SWAP1 PUSH2 0xA8 SWAP2 SWAP1 PUSH2 0x884 JUMP JUMPDEST PUSH2 0x1DC JUMP JUMPDEST PUSH1 0x40 MLOAD PUSH2 0xBA SWAP2 SWAP1 PUSH2 0x942 JUMP JUMPDEST PUSH1 0x40 MLOAD DUP1 SWAP2 SUB SWAP1 RETURN JUMPDEST CALLVALUE DUP1 ISZERO PUSH2 0xCF JUMPI PUSH1 0x0 DUP1 REVERT JUMPDEST POP PUSH2 0xD8 PUSH2 0x4C1 JUMP JUMPDEST PUSH1 0x40 MLOAD PUSH2 0xE5 SWAP2 SWAP1 PUSH2 0x95D JUMP JUMPDEST PUSH1 0x40 MLOAD DUP1 SWAP2 SUB SWAP1 RETURN JUMPDEST CALLVALUE DUP1 ISZERO PUSH2 0xFA JUMPI PUSH1 0x0 DUP1 REVERT JUMPDEST POP PUSH2 0x103 PUSH2 0x4E5 JUMP JUMPDEST PUSH1 0x40 MLOAD PUSH2 0x110 SWAP2 SWAP1 PUSH2 0x95D JUMP JUMPDEST PUSH1 0x40 MLOAD DUP1 SWAP2 SUB SWAP1 RETURN JUMPDEST CALLVALUE DUP1 ISZERO PUSH2 0x125 JUMPI PUSH1 0x0 DUP1 REVERT JUMPDEST POP PUSH2 0x12E PUSH2 0x50B JUMP JUMPDEST PUSH1 0x40 MLOAD PUSH2 0x13B SWAP2 SWAP1 PUSH2 0x9D7 JUMP JUMPDEST PUSH1 0x40 MLOAD DUP1 SWAP2 SUB SWAP1 RETURN JUMPDEST PUSH1 0x3 DUP2 DUP1 MLOAD PUSH1 0x20 DUP2 ADD DUP3 ADD DUP1 MLOAD DUP5 DUP3 MSTORE PUSH1 0x20 DUP4 ADD PUSH1 0x20 DUP6 ADD KECCAK256 DUP2 DUP4 MSTORE DUP1 SWAP6 POP POP POP POP POP POP PUSH1 0x0 SWAP2 POP SWAP1 POP DUP1 PUSH1 0x0 ADD PUSH1 0x0 SWAP1 SLOAD SWAP1 PUSH2 0x100 EXP SWAP1 DIV PUSH1 0xFF AND SWAP1 DUP1 PUSH1 0x1 ADD SLOAD SWAP1 DUP1 PUSH1 0x2 ADD PUSH1 0x0 SWAP1 SLOAD SWAP1 PUSH2 0x100 EXP SWAP1 DIV PUSH20 0xFFFFFFFFFFFFFFFFFFFFFFFFFFFFFFFFFFFFFFFF AND SWAP1 DUP1 PUSH1 0x3 ADD SLOAD SWAP1 DUP1 PUSH1 0x4 ADD SLOAD SWAP1 DUP1 PUSH1 0x5 ADD SLOAD SWAP1 DUP1 PUSH1 0x6 ADD SLOAD SWAP1 DUP1 PUSH1 0x7 ADD PUSH1 0x0 SWAP1 SLOAD SWAP1 PUSH2 0x100 EXP SWAP1 DIV PUSH1 0xFF AND SWAP1 POP DUP9 JUMP JUMPDEST PUSH1 0x0 DUP1 PUSH1 0x0 SWAP1 SLOAD SWAP1 PUSH2 0x100 EXP SWAP1 DIV PUSH20 0xFFFFFFFFFFFFFFFFFFFFFFFFFFFFFFFFFFFFFFFF AND PUSH20 0xFFFFFFFFFFFFFFFFFFFFFFFFFFFFFFFFFFFFFFFF AND CALLER PUSH20 0xFFFFFFFFFFFFFFFFFFFFFFFFFFFFFFFFFFFFFFFF AND EQ PUSH2 0x264 JUMPI PUSH1 0x40 MLOAD PUSH32 0x229E1DBD00000000000000000000000000000000000000000000000000000000 DUP2 MSTORE PUSH1 0x4 ADD PUSH1 0x40 MLOAD DUP1 SWAP2 SUB SWAP1 REVERT JUMPDEST PUSH1 0x3 DUP9 PUSH1 0x40 MLOAD PUSH2 0x274 SWAP2 SWAP1 PUSH2 0xA63 JUMP JUMPDEST SWAP1 DUP2 MSTORE PUSH1 0x20 ADD PUSH1 0x40 MLOAD DUP1 SWAP2 SUB SWAP1 KECCAK256 PUSH1 0x0 ADD PUSH1 0x0 SWAP1 SLOAD SWAP1 PUSH2 0x100 EXP SWAP1 DIV PUSH1 0xFF AND ISZERO PUSH2 0x2CA JUMPI PUSH1 0x40 MLOAD PUSH32 0xD63D1E4800000000000000000000000000000000000000000000000000000000 DUP2 MSTORE PUSH1 0x4 ADD PUSH1 0x40 MLOAD DUP1 SWAP2 SUB SWAP1 REVERT JUMPDEST DUP6 DUP8 LT ISZERO PUSH2 0x304 JUMPI PUSH1 0x40 MLOAD PUSH32 0x6F7EAC2600000000000000000000000000000000000000000000000000000000 DUP2 MSTORE PUSH1 0x4 ADD PUSH1 0x40 MLOAD DUP1 SWAP2 SUB SWAP1 REVERT JUMPDEST TIMESTAMP DUP8 LT ISZERO PUSH2 0x33E JUMPI PUSH1 0x40 MLOAD PUSH32 0x6F7EAC2600000000000000000000000000000000000000000000000000000000 DUP2 MSTORE PUSH1 0x4 ADD PUSH1 0x40 MLOAD DUP1 SWAP2 SUB SWAP1 REVERT JUMPDEST PUSH1 0x0 PUSH1 0x3 SWAP1 POP PUSH1 0x40 MLOAD DUP1 PUSH2 0x100 ADD PUSH1 0x40 MSTORE DUP1 PUSH1 0x1 ISZERO ISZERO DUP2 MSTORE PUSH1 0x20 ADD DUP6 DUP2 MSTORE PUSH1 0x20 ADD DUP7 PUSH20 0xFFFFFFFFFFFFFFFFFFFFFFFFFFFFFFFFFFFFFFFF AND DUP2 MSTORE PUSH1 0x20 ADD DUP3 DUP2 MSTORE PUSH1 0x20 ADD DUP9 DUP2 MSTORE PUSH1 0x20 ADD DUP8 PUSH1 0xFF AND DUP2 MSTORE PUSH1 0x20 ADD DUP10 DUP2 MSTORE PUSH1 0x20 ADD DUP5 ISZERO ISZERO DUP2 MSTORE POP PUSH1 0x3 DUP11 PUSH1 0x40 MLOAD PUSH2 0x3AC SWAP2 SWAP1 PUSH2 0xA63 JUMP JUMPDEST SWAP1 DUP2 MSTORE PUSH1 0x20 ADD PUSH1 0x40 MLOAD DUP1 SWAP2 SUB SWAP1 KECCAK256 PUSH1 0x0 DUP3 ADD MLOAD DUP2 PUSH1 0x0 ADD PUSH1 0x0 PUSH2 0x100 EXP DUP2 SLOAD DUP2 PUSH1 0xFF MUL NOT AND SWAP1 DUP4 ISZERO ISZERO MUL OR SWAP1 SSTORE POP PUSH1 0x20 DUP3 ADD MLOAD DUP2 PUSH1 0x1 ADD SSTORE PUSH1 0x40 DUP3 ADD MLOAD DUP2 PUSH1 0x2 ADD PUSH1 0x0 PUSH2 0x100 EXP DUP2 SLOAD DUP2 PUSH20 0xFFFFFFFFFFFFFFFFFFFFFFFFFFFFFFFFFFFFFFFF MUL NOT AND SWAP1 DUP4 PUSH20 0xFFFFFFFFFFFFFFFFFFFFFFFFFFFFFFFFFFFFFFFF AND MUL OR SWAP1 SSTORE POP PUSH1 0x60 DUP3 ADD MLOAD DUP2 PUSH1 0x3 ADD SSTORE PUSH1 0x80 DUP3 ADD MLOAD DUP2 PUSH1 0x4 ADD SSTORE PUSH1 0xA0 DUP3 ADD MLOAD DUP2 PUSH1 0x5 ADD SSTORE PUSH1 0xC0 DUP3 ADD MLOAD DUP2 PUSH1 0x6 ADD SSTORE PUSH1 0xE0 DUP3 ADD MLOAD DUP2 PUSH1 0x7 ADD PUSH1 0x0 PUSH2 0x100 EXP DUP2 SLOAD DUP2 PUSH1 0xFF MUL NOT AND SWAP1 DUP4 ISZERO ISZERO MUL OR SWAP1 SSTORE POP SWAP1 POP POP PUSH32 0x4AD85A69286191006EA05981AE1848070DBF232E5E00FFDDA4B857C16097F0D7 DUP10 DUP6 DUP8 PUSH1 0x40 MLOAD PUSH2 0x4A9 SWAP4 SWAP3 SWAP2 SWAP1 PUSH2 0xAC4 JUMP JUMPDEST PUSH1 0x40 MLOAD DUP1 SWAP2 SUB SWAP1 LOG1 PUSH1 0x1 SWAP2 POP POP SWAP8 SWAP7 POP POP POP POP POP POP POP JUMP JUMPDEST PUSH1 0x0 DUP1 SLOAD SWAP1 PUSH2 0x100 EXP SWAP1 DIV PUSH20 0xFFFFFFFFFFFFFFFFFFFFFFFFFFFFFFFFFFFFFFFF AND DUP2 JUMP JUMPDEST PUSH1 0x2 PUSH1 0x0 SWAP1 SLOAD SWAP1 PUSH2 0x100 EXP SWAP1 DIV PUSH20 0xFFFFFFFFFFFFFFFFFFFFFFFFFFFFFFFFFFFFFFFF AND DUP2 JUMP JUMPDEST PUSH1 0x1 PUSH1 0x0 SWAP1 SLOAD SWAP1 PUSH2 0x100 EXP SWAP1 DIV PUSH20 0xFFFFFFFFFFFFFFFFFFFFFFFFFFFFFFFFFFFFFFFF AND DUP2 JUMP JUMPDEST PUSH1 0x0 PUSH1 0x40 MLOAD SWAP1 POP SWAP1 JUMP JUMPDEST PUSH1 0x0 DUP1 REVERT JUMPDEST PUSH1 0x0 DUP1 REVERT JUMPDEST PUSH1 0x0 DUP1 REVERT JUMPDEST PUSH1 0x0 DUP1 REVERT JUMPDEST PUSH1 0x0 PUSH1 0x1F NOT PUSH1 0x1F DUP4 ADD AND SWAP1 POP SWAP2 SWAP1 POP JUMP JUMPDEST PUSH32 0x4E487B7100000000000000000000000000000000000000000000000000000000 PUSH1 0x0 MSTORE PUSH1 0x41 PUSH1 0x4 MSTORE PUSH1 0x24 PUSH1 0x0 REVERT JUMPDEST PUSH2 0x598 DUP3 PUSH2 0x54F JUMP JUMPDEST DUP2 ADD DUP2 DUP2 LT PUSH8 0xFFFFFFFFFFFFFFFF DUP3 GT OR ISZERO PUSH2 0x5B7 JUMPI PUSH2 0x5B6 PUSH2 0x560 JUMP JUMPDEST JUMPDEST DUP1 PUSH1 0x40 MSTORE POP POP POP JUMP JUMPDEST PUSH1 0x0 PUSH2 0x5CA PUSH2 0x531 JUMP JUMPDEST SWAP1 POP PUSH2 0x5D6 DUP3 DUP3 PUSH2 0x58F JUMP JUMPDEST SWAP2 SWAP1 POP JUMP JUMPDEST PUSH1 0x0 PUSH8 0xFFFFFFFFFFFFFFFF DUP3 GT ISZERO PUSH2 0x5F6 JUMPI PUSH2 0x5F5 PUSH2 0x560 JUMP JUMPDEST JUMPDEST PUSH2 0x5FF DUP3 PUSH2 0x54F JUMP JUMPDEST SWAP1 POP PUSH1 0x20 DUP2 ADD SWAP1 POP SWAP2 SWAP1 POP JUMP JUMPDEST DUP3 DUP2 DUP4 CALLDATACOPY PUSH1 0x0 DUP4 DUP4 ADD MSTORE POP POP POP JUMP JUMPDEST PUSH1 0x0 PUSH2 0x62E PUSH2 0x629 DUP5 PUSH2 0x5DB JUMP JUMPDEST PUSH2 0x5C0 JUMP JUMPDEST SWAP1 POP DUP3 DUP2 MSTORE PUSH1 0x20 DUP2 ADD DUP5 DUP5 DUP5 ADD GT ISZERO PUSH2 0x64A JUMPI PUSH2 0x649 PUSH2 0x54A JUMP JUMPDEST JUMPDEST PUSH2 0x655 DUP5 DUP3 DUP6 PUSH2 0x60C JUMP JUMPDEST POP SWAP4 SWAP3 POP POP POP JUMP JUMPDEST PUSH1 0x0 DUP3 PUSH1 0x1F DUP4 ADD SLT PUSH2 0x672 JUMPI PUSH2 0x671 PUSH2 0x545 JUMP JUMPDEST JUMPDEST DUP2 CALLDATALOAD PUSH2 0x682 DUP5 DUP3 PUSH1 0x20 DUP7 ADD PUSH2 0x61B JUMP JUMPDEST SWAP2 POP POP SWAP3 SWAP2 POP POP JUMP JUMPDEST PUSH1 0x0 PUSH1 0x20 DUP3 DUP5 SUB SLT ISZERO PUSH2 0x6A1 JUMPI PUSH2 0x6A0 PUSH2 0x53B JUMP JUMPDEST JUMPDEST PUSH1 0x0 DUP3 ADD CALLDATALOAD PUSH8 0xFFFFFFFFFFFFFFFF DUP2 GT ISZERO PUSH2 0x6BF JUMPI PUSH2 0x6BE PUSH2 0x540 JUMP JUMPDEST JUMPDEST PUSH2 0x6CB DUP5 DUP3 DUP6 ADD PUSH2 0x65D JUMP JUMPDEST SWAP2 POP POP SWAP3 SWAP2 POP POP JUMP JUMPDEST PUSH1 0x0 DUP2 ISZERO ISZERO SWAP1 POP SWAP2 SWAP1 POP JUMP JUMPDEST PUSH2 0x6E9 DUP2 PUSH2 0x6D4 JUMP JUMPDEST DUP3 MSTORE POP POP JUMP JUMPDEST PUSH1 0x0 DUP2 SWAP1 POP SWAP2 SWAP1 POP JUMP JUMPDEST PUSH2 0x702 DUP2 PUSH2 0x6EF JUMP JUMPDEST DUP3 MSTORE POP POP JUMP JUMPDEST PUSH1 0x0 PUSH20 0xFFFFFFFFFFFFFFFFFFFFFFFFFFFFFFFFFFFFFFFF DUP3 AND SWAP1 POP SWAP2 SWAP1 POP JUMP JUMPDEST PUSH1 0x0 PUSH2 0x733 DUP3 PUSH2 0x708 JUMP JUMPDEST SWAP1 POP SWAP2 SWAP1 POP JUMP JUMPDEST PUSH2 0x743 DUP2 PUSH2 0x728 JUMP JUMPDEST DUP3 MSTORE POP POP JUMP JUMPDEST PUSH1 0x0 PUSH2 0x100 DUP3 ADD SWAP1 POP PUSH2 0x75F PUSH1 0x0 DUP4 ADD DUP12 PUSH2 0x6E0 JUMP JUMPDEST PUSH2 0x76C PUSH1 0x20 DUP4 ADD DUP11 PUSH2 0x6F9 JUMP JUMPDEST PUSH2 0x779 PUSH1 0x40 DUP4 ADD DUP10 PUSH2 0x73A JUMP JUMPDEST PUSH2 0x786 PUSH1 0x60 DUP4 ADD DUP9 PUSH2 0x6F9 JUMP JUMPDEST PUSH2 0x793 PUSH1 0x80 DUP4 ADD DUP8 PUSH2 0x6F9 JUMP JUMPDEST PUSH2 0x7A0 PUSH1 0xA0 DUP4 ADD DUP7 PUSH2 0x6F9 JUMP JUMPDEST PUSH2 0x7AD PUSH1 0xC0 DUP4 ADD DUP6 PUSH2 0x6F9 JUMP JUMPDEST PUSH2 0x7BA PUSH1 0xE0 DUP4 ADD DUP5 PUSH2 0x6E0 JUMP JUMPDEST SWAP10 SWAP9 POP POP POP POP POP POP POP POP POP JUMP JUMPDEST PUSH2 0x7D0 DUP2 PUSH2 0x6EF JUMP JUMPDEST DUP2 EQ PUSH2 0x7DB JUMPI PUSH1 0x0 DUP1 REVERT JUMPDEST POP JUMP JUMPDEST PUSH1 0x0 DUP2 CALLDATALOAD SWAP1 POP PUSH2 0x7ED DUP2 PUSH2 0x7C7 JUMP JUMPDEST SWAP3 SWAP2 POP POP JUMP JUMPDEST PUSH1 0x0 PUSH1 0xFF DUP3 AND SWAP1 POP SWAP2 SWAP1 POP JUMP JUMPDEST PUSH2 0x809 DUP2 PUSH2 0x7F3 JUMP JUMPDEST DUP2 EQ PUSH2 0x814 JUMPI PUSH1 0x0 DUP1 REVERT JUMPDEST POP JUMP JUMPDEST PUSH1 0x0 DUP2 CALLDATALOAD SWAP1 POP PUSH2 0x826 DUP2 PUSH2 0x800 JUMP JUMPDEST SWAP3 SWAP2 POP POP JUMP JUMPDEST PUSH2 0x835 DUP2 PUSH2 0x728 JUMP JUMPDEST DUP2 EQ PUSH2 0x840 JUMPI PUSH1 0x0 DUP1 REVERT JUMPDEST POP JUMP JUMPDEST PUSH1 0x0 DUP2 CALLDATALOAD SWAP1 POP PUSH2 0x852 DUP2 PUSH2 0x82C JUMP JUMPDEST SWAP3 SWAP2 POP POP JUMP JUMPDEST PUSH2 0x861 DUP2 PUSH2 0x6D4 JUMP JUMPDEST DUP2 EQ PUSH2 0x86C JUMPI PUSH1 0x0 DUP1 REVERT JUMPDEST POP JUMP JUMPDEST PUSH1 0x0 DUP2 CALLDATALOAD SWAP1 POP PUSH2 0x87E DUP2 PUSH2 0x858 JUMP JUMPDEST SWAP3 SWAP2 POP POP JUMP JUMPDEST PUSH1 0x0 DUP1 PUSH1 0x0 DUP1 PUSH1 0x0 DUP1 PUSH1 0x0 PUSH1 0xE0 DUP9 DUP11 SUB SLT ISZERO PUSH2 0x8A3 JUMPI PUSH2 0x8A2 PUSH2 0x53B JUMP JUMPDEST JUMPDEST PUSH1 0x0 DUP9 ADD CALLDATALOAD PUSH8 0xFFFFFFFFFFFFFFFF DUP2 GT ISZERO PUSH2 0x8C1 JUMPI PUSH2 0x8C0 PUSH2 0x540 JUMP JUMPDEST JUMPDEST PUSH2 0x8CD DUP11 DUP3 DUP12 ADD PUSH2 0x65D JUMP JUMPDEST SWAP8 POP POP PUSH1 0x20 PUSH2 0x8DE DUP11 DUP3 DUP12 ADD PUSH2 0x7DE JUMP JUMPDEST SWAP7 POP POP PUSH1 0x40 PUSH2 0x8EF DUP11 DUP3 DUP12 ADD PUSH2 0x7DE JUMP JUMPDEST SWAP6 POP POP PUSH1 0x60 PUSH2 0x900 DUP11 DUP3 DUP12 ADD PUSH2 0x817 JUMP JUMPDEST SWAP5 POP POP PUSH1 0x80 PUSH2 0x911 DUP11 DUP3 DUP12 ADD PUSH2 0x843 JUMP JUMPDEST SWAP4 POP POP PUSH1 0xA0 PUSH2 0x922 DUP11 DUP3 DUP12 ADD PUSH2 0x7DE JUMP JUMPDEST SWAP3 POP POP PUSH1 0xC0 PUSH2 0x933 DUP11 DUP3 DUP12 ADD PUSH2 0x86F JUMP JUMPDEST SWAP2 POP POP SWAP3 SWAP6 SWAP9 SWAP2 SWAP5 SWAP8 POP SWAP3 SWAP6 POP JUMP JUMPDEST PUSH1 0x0 PUSH1 0x20 DUP3 ADD SWAP1 POP PUSH2 0x957 PUSH1 0x0 DUP4 ADD DUP5 PUSH2 0x6F9 JUMP JUMPDEST SWAP3 SWAP2 POP POP JUMP JUMPDEST PUSH1 0x0 PUSH1 0x20 DUP3 ADD SWAP1 POP PUSH2 0x972 PUSH1 0x0 DUP4 ADD DUP5 PUSH2 0x73A JUMP JUMPDEST SWAP3 SWAP2 POP POP JUMP JUMPDEST PUSH1 0x0 DUP2 SWAP1 POP SWAP2 SWAP1 POP JUMP JUMPDEST PUSH1 0x0 PUSH2 0x99D PUSH2 0x998 PUSH2 0x993 DUP5 PUSH2 0x708 JUMP JUMPDEST PUSH2 0x978 JUMP JUMPDEST PUSH2 0x708 JUMP JUMPDEST SWAP1 POP SWAP2 SWAP1 POP JUMP JUMPDEST PUSH1 0x0 PUSH2 0x9AF DUP3 PUSH2 0x982 JUMP JUMPDEST SWAP1 POP SWAP2 SWAP1 POP JUMP JUMPDEST PUSH1 0x0 PUSH2 0x9C1 DUP3 PUSH2 0x9A4 JUMP JUMPDEST SWAP1 POP SWAP2 SWAP1 POP JUMP JUMPDEST PUSH2 0x9D1 DUP2 PUSH2 0x9B6 JUMP JUMPDEST DUP3 MSTORE POP POP JUMP JUMPDEST PUSH1 0x0 PUSH1 0x20 DUP3 ADD SWAP1 POP PUSH2 0x9EC PUSH1 0x0 DUP4 ADD DUP5 PUSH2 0x9C8 JUMP JUMPDEST SWAP3 SWAP2 POP POP JUMP JUMPDEST PUSH1 0x0 DUP2 MLOAD SWAP1 POP SWAP2 SWAP1 POP JUMP JUMPDEST PUSH1 0x0 DUP2 SWAP1 POP SWAP3 SWAP2 POP POP JUMP JUMPDEST PUSH1 0x0 JUMPDEST DUP4 DUP2 LT ISZERO PUSH2 0xA26 JUMPI DUP1 DUP3 ADD MLOAD DUP2 DUP5 ADD MSTORE PUSH1 0x20 DUP2 ADD SWAP1 POP PUSH2 0xA0B JUMP JUMPDEST PUSH1 0x0 DUP5 DUP5 ADD MSTORE POP POP POP POP JUMP JUMPDEST PUSH1 0x0 PUSH2 0xA3D DUP3 PUSH2 0x9F2 JUMP JUMPDEST PUSH2 0xA47 DUP2 DUP6 PUSH2 0x9FD JUMP JUMPDEST SWAP4 POP PUSH2 0xA57 DUP2 DUP6 PUSH1 0x20 DUP7 ADD PUSH2 0xA08 JUMP JUMPDEST DUP1 DUP5 ADD SWAP2 POP POP SWAP3 SWAP2 POP POP JUMP JUMPDEST PUSH1 0x0 PUSH2 0xA6F DUP3 DUP5 PUSH2 0xA32 JUMP JUMPDEST SWAP2 POP DUP2 SWAP1 POP SWAP3 SWAP2 POP POP JUMP JUMPDEST PUSH1 0x0 DUP3 DUP3 MSTORE PUSH1 0x20 DUP3 ADD SWAP1 POP SWAP3 SWAP2 POP POP JUMP JUMPDEST PUSH1 0x0 PUSH2 0xA96 DUP3 PUSH2 0x9F2 JUMP JUMPDEST PUSH2 0xAA0 DUP2 DUP6 PUSH2 0xA7A JUMP JUMPDEST SWAP4 POP PUSH2 0xAB0 DUP2 DUP6 PUSH1 0x20 DUP7 ADD PUSH2 0xA08 JUMP JUMPDEST PUSH2 0xAB9 DUP2 PUSH2 0x54F JUMP JUMPDEST DUP5 ADD SWAP2 POP POP SWAP3 SWAP2 POP POP JUMP JUMPDEST PUSH1 0x0 PUSH1 0x60 DUP3 ADD SWAP1 POP DUP2 DUP2 SUB PUSH1 0x0 DUP4 ADD MSTORE PUSH2 0xADE DUP2 DUP7 PUSH2 0xA8B JUMP JUMPDEST SWAP1 POP PUSH2 0xAED PUSH1 0x20 DUP4 ADD DUP6 PUSH2 0x6F9 JUMP JUMPDEST PUSH2 0xAFA PUSH1 0x40 DUP4 ADD DUP5 PUSH2 0x73A JUMP JUMPDEST SWAP5 SWAP4 POP POP POP POP JUMP INVALID LOG2 PUSH5 0x6970667358 0x22 SLT KECCAK256 0x2E 0xD8 0x1F DUP13 DUP4 DUP8 PUSH5 0x329D1EA5DF BALANCE 0xDB GASLIMIT CALLER 0xA9 GASLIMIT 0xDD STATICCALL DUP14 PUSH29 0xC4CB7A65047F8F9E377E64736F6C634300081700330000000000000000 "},"methodIdentifiers":{"bitsaveAddress()":"2ae3c90f","createSaving(string,uint256,uint256,uint8,address,uint256,bool)":"13aa6539","ownerAddress()":"8f84aa09","savings(string)":"13203929","stableCoin()":"992642e5"}}}}}